{
  "_format": "hh-sol-artifact-1",
  "contractName": "SuffixData",
  "sourceName": "contracts/SuffixData.sol",
  "abi": [
    {
      "anonymous": false,
      "inputs": [
        {
          "indexed": false,
          "internalType": "uint256",
          "name": "number",
          "type": "uint256"
        },
        {
          "indexed": false,
          "internalType": "bytes[]",
          "name": "data",
          "type": "bytes[]"
        }
      ],
      "name": "Data",
      "type": "event"
    },
    {
      "inputs": [
        {
          "internalType": "uint256",
          "name": "number",
          "type": "uint256"
        }
      ],
      "name": "sendData",
      "outputs": [],
      "stateMutability": "nonpayable",
      "type": "function"
    }
  ],
  "bytecode": "0x6080604052348015600f57600080fd5b5061038c8061001f6000396000f3fe608060405234801561001057600080fd5b506004361061002b5760003560e01c8063ea0b4cfe14610030575b600080fd5b61004a60048036038101906100459190610131565b61004c565b005b7f7e58396d590b82cb974a8de7902b3451b2aade5698e90fd5385c485c5df6369d83838360405161007f93929190610324565b60405180910390a1505050565b600080fd5b600080fd5b6000819050919050565b6100a981610096565b81146100b457600080fd5b50565b6000813590506100c6816100a0565b92915050565b600080fd5b600080fd5b600080fd5b60008083601f8401126100f1576100f06100cc565b5b8235905067ffffffffffffffff81111561010e5761010d6100d1565b5b60208301915083602082028301111561012a576101296100d6565b5b9250929050565b60008060006040848603121561014a5761014961008c565b5b6000610158868287016100b7565b935050602084013567ffffffffffffffff81111561017957610178610091565b5b610185868287016100db565b92509250509250925092565b61019a81610096565b82525050565b600082825260208201905092915050565b6000819050919050565b600082825260208201905092915050565b82818337600083830152505050565b6000601f19601f8301169050919050565b60006101f883856101bb565b93506102058385846101cc565b61020e836101db565b840190509392505050565b60006102268484846101ec565b90509392505050565b600080fd5b600080fd5b600080fd5b6000808335600160200384360303811261025b5761025a610239565b5b83810192508235915060208301925067ffffffffffffffff8211156102835761028261022f565b5b60018202360383131561029957610298610234565b5b509250929050565b6000602082019050919050565b60006102ba83856101a0565b9350836020840285016102cc846101b1565b8060005b878110156103125784840389526102e7828461023e565b6102f2868284610219565b95506102fd846102a1565b935060208b019a5050506001810190506102d0565b50829750879450505050509392505050565b60006040820190506103396000830186610191565b818103602083015261034c8184866102ae565b905094935050505056fea26469706673582212205edea6ab0480c5cf325c3da5faf8501e1265a4e6b21b522673c90112f2be8ae264736f6c634300081c0033",
  "linkReferences": {},
  "deployedLinkReferences": {}
}